:1000000012C019C018C017C016C015C014C013C044
:1000100012C011C010C00FC00EC00DC00CC00BC06C
:100020000AC009C008C011241FBECFE5D4E0DEBF5E
:10003000CDBF02D056C0E4CF0F931F938FEF87BB85
:1000400014BA06E012E0EAE0B0E2A8E0F9E083B317
:1000500090E023B3422F50E04270507023B330E061
:1000600024703070BC016170707080FF0FC042302E
:10007000510521F424303105C9F431C04115510531
:1000800039F52115310539F508BB25C04115510554
:1000900029F42430310511F4F8BBD9CF4230510591
:1000A00049F42430310531F4A8BB04C0232B79F680
:1000B00018BBCDCF672B61F44230510519F4232BC7
:1000C00031F60DC0452B19F6232B09F6B8BBBFCF6F
:1000D000452B09F0BCCF2430310509F0B8CFE8BB7F
:0600E000B6CFF894FFCF3B
:00000001FF
